:100000000C9446000C9465000C9465000C946500FB
:100010000C9465000C9465000C9465000C946500CC
:100020000C9465000C9465000C9465000C946500BC
:100030000C9465000C948B010C9465000C94650085
:100040000C9465000C9465000C9465000C9465009C
:100050000C9465000C9465000C9465000C9465008C
:100060000C9465000C9465000C9465000C9465007C
:100070000C9465000C9465000C9465000C9465006C
:100080000C9465000C9465000C94650011241FBE4F
:10009000CFEFD0E4DEBFCDBF11E0A0E0B1E0EEE1F4
:1000A000F9E000E00BBF02C007900D92A231B1074A
:1000B000D9F721E0A2E1B1E001C01D92A533B2075A
:1000C000E1F70E94A5030C948D040C940000CF93DB
:1000D000DF9300D01F92CDB7DEB789837B836A831D
:1000E00089818A3031F48A819B81BC018DE00E9434
:1000F000670080EC90E0FC018081882F90E08072A6
:100100009927892BB1F386EC90E02981FC012083AB
:1001100080E090E00F900F900F90DF91CF910895C5
:10012000CF93DF93CDB7DEB781E890E02BE0FC0101
:10013000208388E890E02DE730E0FC0131832083C4
:100140008FE690E022E0FC01208384E890E0FC014F
:100150001182108280910E0190910F01A0911001E7
:10016000B09111018093130190931401A093150194
:10017000B09316018FE590E02FE530E0F901208182
:100180002068FC0120830000DF91CF910895CF9378
:10019000DF93CDB7DEB781E890E0FC01108200006C
:1001A000DF91CF9108950F931F93CF93DF931F9209
:1001B000CDB7DEB71982A4C08981282F30E0C901EC
:1001C000880F991F820F931F880F991F880F991FFF
:1001D000815E9E4FFC012081318142815381898162
:1001E000682F70E0CB01880F991F860F971F880F2B
:1001F000991F880F991F855E9E4FFC018081918118
:10020000A281B381281739074A075B0708F449C060
:100210008981082F10E08981282F30E0C901880FDB
:10022000991F820F931F880F991F880F991F8D5D4B
:100230009E4FFC01408151818981282F30E0C90106
:10024000880F991F820F931F880F991F880F991F7E
:10025000875E9E4FFC0180819181FA0109959C0186
:10026000C801880F991F800F911F880F991F880F51
:10027000991F875E9E4FFC01318320838981282F3F
:1002800030E0C901880F991F820F931F880F991FB3
:10029000880F991F815E9E4FFC011082118212828D
:1002A00013828981682F70E08981282F30E0C9018D
:1002B000880F991F820F931F880F991F880F991F0E
:1002C000815E9E4FFC0180819181A281B3819C015E
:1002D000AD012C593F4F4F4F5F4FCB01880F991FF6
:1002E000860F971F880F991F880F991F815E9E4F59
:1002F000FC01208331834283538389818F5F89830B
:100300008981823008F458CF00000F90DF91CF919F
:100310001F910F9108951F920F9200905F000F920E
:10032000112400905B000F922F933F934F935F93A4
:100330006F937F938F939F93AF93BF93EF93FF93AD
:10034000CF93DF93CDB7DEB7809113019091140165
:10035000A0911501B09116010197A109B1098093EF
:10036000130190931401A0931501B093160180918D
:10037000130190911401A0911501B0911601892BE0
:100380008A2B8B2B91F40E94D30080910E019091C7
:100390000F01A0911001B09111018093130190936E
:1003A0001401A0931501B09316010000DF91CF91C5
:1003B000FF91EF91BF91AF919F918F917F916F913D
:1003C0005F914F913F912F910F9000925B000F90A2
:1003D00000925F000F901F901895CF93DF9300D08D
:1003E00000D0CDB7DEB769837A838B839C83898104
:1003F0009A81AB81BC8180930E0190930F01A093F1
:100400001001B093110180910E0190910F01A09104
:100410001001B09111018093130190931401A093E6
:100420001501B093160100000F900F900F900F90E0
:10043000DF91CF910895CF93DF9300D01F92CDB776
:10044000DEB78B831A82198227C088E290E028E009
:10045000FC01208388E290E028E230E0F90120816D
:10046000422F2B81222F30E0098002C0359527953D
:100470000A94E2F72170242BFC01208388E290E0AB
:1004800028E230E0F90120812260FC01208389818B
:100490009A8101969A83898389819A810897ACF21F
:1004A00088E290E028E230E0F90120812460FC013C
:1004B000208388E290E0FC01108200000F900F90F2
:1004C0000F90DF91CF910895CF93DF9300D0CDB7F8
:1004D000DEB79A83898380E290E0FC018081809579
:1004E0008093170189819A818230910509F441C076
:1004F000833091052CF4009759F0019789F0B4C02E
:100500008330910509F45EC0049709F484C0ACC03F
:1005100081E090E09A83898387E080931801A7C0E7
:1005200080911701882329F481E090E09A838983E0
:100530009EC080911701813029F482E090E09A8377
:10054000898395C080911701823029F483E090E07F
:100550009A8389838CC080911701833029F484E0C9
:1005600090E09A83898383C081E090E09A838983B5
:100570007EC080911701882329F481E090E09A835E
:10058000898375C080911701813029F482E090E061
:100590009A8389836CC080911701823029F483E0AB
:1005A00090E09A83898363C080911701833029F496
:1005B00084E090E09A8389835AC082E090E09A8335
:1005C000898355C080911701882329F481E090E048
:1005D0009A8389834CC080911701813029F482E08D
:1005E00090E09A83898343C080911701823029F477
:1005F00083E090E09A8389833AC080911701833029
:1006000029F484E090E09A83898331C083E090E00C
:100610009A8389832CC080911701882329F481E073
:1006200090E09A83898323C080911701813029F457
:1006300082E090E09A8389831AC08091170182300A
:1006400029F483E090E09A83898311C08091170197
:10065000833029F484E090E09A83898308C084E0A1
:1006600090E09A83898303C01A82198200008981ED
:100670009A818230910571F0833091052CF40097B6
:1006800001F1019701F124C08330910569F00497CD
:10069000A9F01EC0809118018F3FB9F08091180118
:1006A0008F5F8093180111C080911801882379F021
:1006B0008091180181508093180109C0109218018F
:1006C00007C0000005C0000003C0000001C000001A
:1006D00089819A810F900F90DF91CF910895CF93E8
:1006E000DF9300D0CDB7DEB79A83898380E290E0B4
:1006F000FC01808180958093170189819A81009700
:1007000019F0019731F00AC081E090E09A83898363
:1007100008C081E090E09A83898303C01A8219821D
:10072000000089819A81009741F0019709F006C085
:10073000809118010E941B0201C0000089819A81EA
:100740000F900F90DF91CF910895CF93DF931F9279
:10075000CDB7DEB781E290E0FC01108282E290E04A
:100760002FEFFC01208387E290E02FEFFC01208334
:1007700088E290E0FC01108219828981282F30E004
:10078000C901880F991F820F931F880F991F880F27
:10079000991F875E9E4FFC01118210828981282F4C
:1007A00030E0C901880F991F820F931F880F991F8E
:1007B000880F991F9C01255E3E4F84E690E0A0E0E3
:1007C000B0E0F90180839183A283B3838981682F8C
:1007D00070E08981282F30E0C901880F991F820FAE
:1007E000931F880F991F880F991F855E9E4FFC01EC
:1007F0002081318142815381CB01880F991F860F5F
:10080000971F880F991F880F991F815E9E4FFC01CB
:1008100020833183428353838981282F30E0C901AB
:10082000880F991F820F931F880F991F880F991F98
:100830008D5D9E4F24E632E0FC0131832083898167
:100840008F5F89838981282F30E0C901880F991F24
:10085000820F931F880F991F880F991F875E9E4FE5
:10086000FC01118210828981282F30E0C901880F94
:10087000991F820F931F880F991F880F991F9C0142
:10088000255E3E4F84E690E0A0E0B0E0F901808371
:100890009183A283B3838981682F70E08981282F97
:1008A00030E0C901880F991F820F931F880F991F8D
:1008B000880F991F855E9E4FFC0120813181428106
:1008C0005381CB01880F991F860F971F880F991F9F
:1008D000880F991F815E9E4FFC01208331834283E4
:1008E00053838981282F30E0C901880F991F820F17
:1008F000931F880F991F880F991F8D5D9E4F2FE6BC
:1009000033E0FC013183208364E670E080E090E016
:0E0910000E94ED010E949000FFCFF894FFCFEF
:10091E00000000020000000067000000000001005F
:02092E000000C7
:00000001FF
