:100000000C9446000C9465000C9465000C946500FB
:100010000C9465000C9465000C9465000C946500CC
:100020000C9465000C9465000C9465000C946500BC
:100030000C9465000C948B010C9465000C94650085
:100040000C9465000C9465000C9465000C9465009C
:100050000C9465000C9465000C9465000C9465008C
:100060000C9465000C9465000C9465000C9465007C
:100070000C9465000C9465000C9465000C9465006C
:100080000C9465000C9465000C94650011241FBE4F
:10009000CFEFD0E4DEBFCDBF11E0A0E0B1E0ECE7F0
:1000A000F5E100E00BBF02C007900D92AA33B10743
:1000B000D9F721E0AAE3B1E001C01D92AA39B20745
:1000C000E1F70E9440080C94BC0A0C940000CF9306
:1000D000DF9300D01F92CDB7DEB789837B836A831D
:1000E00089818A3031F48A819B81BC018DE00E9434
:1000F000670080EC90E0FC018081882F90E08072A6
:100100009927892BB1F386EC90E02981FC012083AB
:1001100080E090E00F900F900F90DF91CF910895C5
:10012000CF93DF93CDB7DEB781E890E02BE0FC0101
:10013000208388E890E02DE730E0FC0131832083C4
:100140008FE690E022E0FC01208384E890E0FC014F
:100150001182108280910E0190910F01A0911001E7
:10016000B091110180933B0190933C01A0933D011C
:10017000B0933E018FE590E02FE530E0F90120815A
:100180002068FC0120830000DF91CF910895CF9378
:10019000DF93CDB7DEB781E890E0FC01108200006C
:1001A000DF91CF9108950F931F93CF93DF931F9209
:1001B000CDB7DEB71982A4C08981282F30E0C901EC
:1001C000880F991F820F931F880F991F880F991FFF
:1001D000845B9E4FFC012081318142815381898162
:1001E000682F70E0CB01880F991F860F971F880F2B
:1001F000991F880F991F885B9E4FFC018081918118
:10020000A281B381281739074A075B0708F449C060
:100210008981082F10E08981282F30E0C901880FDB
:10022000991F820F931F880F991F880F991F805B5A
:100230009E4FFC01408151818981282F30E0C90106
:10024000880F991F820F931F880F991F880F991F7E
:100250008A5B9E4FFC0180819181FA0109959C0186
:10026000C801880F991F800F911F880F991F880F51
:10027000991F8A5B9E4FFC01318320838981282F3F
:1002800030E0C901880F991F820F931F880F991FB3
:10029000880F991F845B9E4FFC011082118212828D
:1002A00013828981682F70E08981282F30E0C9018D
:1002B000880F991F820F931F880F991F880F991F0E
:1002C000845B9E4FFC0180819181A281B3819C015E
:1002D000AD012C593F4F4F4F5F4FCB01880F991FF6
:1002E000860F971F880F991F880F991F845B9E4F59
:1002F000FC01208331834283538389818F5F89830B
:100300008981863008F458CF00000F90DF91CF919B
:100310001F910F9108951F920F9200905F000F920E
:10032000112400905B000F922F933F934F935F93A4
:100330006F937F938F939F93AF93BF93EF93FF93AD
:10034000CF93DF93CDB7DEB780913B0190913C0115
:10035000A0913D01B0913E010197A109B10980939F
:100360003B0190933C01A0933D01B0933E018091ED
:100370003B0190913C01A0913D01B0913E01892B40
:100380008A2B8B2B91F40E94D30080910E019091C7
:100390000F01A0911001B091110180933B01909346
:1003A0003C01A0933D01B0933E010000DF91CF914D
:1003B000FF91EF91BF91AF919F918F917F916F913D
:1003C0005F914F913F912F910F9000925B000F90A2
:1003D00000925F000F901F901895CF93DF9300D08D
:1003E00000D0CDB7DEB769837A838B839C83898104
:1003F0009A81AB81BC8180930E0190930F01A093F1
:100400001001B093110180910E0190910F01A09104
:100410001001B091110180933B0190933C01A09396
:100420003D01B0933E0100000F900F900F900F9090
:10043000DF91CF910895CF93DF9300D000D0CDB757
:10044000DEB78B836C831A82198233C08C81813032
:1004500031F488E290E028E0FC01208308C08C8120
:10046000823029F488E290E020E2FC01208388E2D7
:1004700090E028E230E0F9012081422F2B81222FE9
:1004800030E0098002C0359527950A94E2F7217083
:10049000242BFC01208388E290E028E230E0F9017F
:1004A00020812260FC01208389819A8101969A83B0
:1004B000898389819A8108974CF28C81813051F42B
:1004C00088E290E028E230E0F90120812460FC011C
:1004D00020830CC08C81823049F488E290E028E2CD
:1004E00030E0F90120812061FC01208388E290E066
:1004F000FC01108200000F900F900F900F90DF9181
:10050000CF910895CF93DF9300D0CDB7DEB79A8314
:10051000898380E290E0FC018081809580933F0197
:1005200089819A818230910509F440C08330910518
:100530002CF4009759F0019781F0B3C083309105F6
:1005400009F45DC0049709F483C0ABC081E090E07A
:100550009A83898310924001A7C080913F0188232C
:1005600029F481E090E09A8389839EC080913F01C5
:10057000813029F482E090E09A83898395C080914C
:100580003F01823029F483E090E09A8389838CC014
:1005900080913F01833029F484E090E09A8389833D
:1005A00083C081E090E09A8389837EC080913F017F
:1005B000882329F481E090E09A83898375C0809133
:1005C0003F01813029F482E090E09A8389836CC0F6
:1005D00080913F01823029F483E090E09A838983FF
:1005E00063C080913F01833029F484E090E09A83D6
:1005F00089835AC082E090E09A83898355C08091B4
:100600003F01882329F481E090E09A8389834CC0DC
:1006100080913F01813029F482E090E09A838983C0
:1006200043C080913F01823029F483E090E09A83B7
:1006300089833AC080913F01833029F484E090E0BF
:100640009A83898331C083E090E09A8389832CC0A8
:1006500080913F01882329F481E090E09A83898387
:1006600023C080913F01813029F482E090E09A8399
:1006700089831AC080913F01823029F483E090E0A1
:100680009A83898311C080913F01833029F484E0EB
:1006900090E09A83898308C084E090E09A838983FC
:1006A00003C01A821982000089819A8182309105E3
:1006B00071F0833091052CF4009799F1019799F12D
:1006C00035C08330910581F00497E1F02FC080910F
:1006D0004001823030F4809140018F5F809340016F
:1006E00025C01092400122C080914001882331F042
:1006F0008091400181508093400118C082E0809336
:10070000400114C080914001833020F48AE080933E
:1007100040010BC0809140018A3039F410924001B1
:1007200004C0000003C0000001C0000089819A815C
:100730000F900F90DF91CF910895CF93DF9300D06A
:10074000CDB7DEB79A83898389819A8182309105FA
:1007500039F1833091052CF4009759F0019781F01D
:10076000A6C08330910509F448C0049709F472C00B
:100770009EC081E090E09A838983109242019AC0E2
:1007800080914001882339F482E090E09A83898344
:10079000109242018FC081E090E09A8389838AC0E1
:1007A000809140018A3029F481E090E09A83898326
:1007B00081C080914001882329F482E090E09A83EF
:1007C000898378C080914001813039F483E090E0E2
:1007D0009A838983109242016DC0809140018230DA
:1007E00039F484E090E09A8389831092420162C0D8
:1007F00081E090E09A8389835DC0809140018A30D6
:1008000029F481E090E09A83898354C0809140016B
:10081000882339F482E090E09A8389831092420120
:1008200049C080914001813029F483E090E09A83AF
:10083000898340C080914001823039F484E090E0A7
:100840009A8389831092420135C081E090E09A83B7
:10085000898330C0809140018A3029F481E090E0A2
:100860009A83898327C080914001882339F482E0EC
:1008700090E09A838983109242011CC080914001CC
:10088000813039F483E090E09A83898310924201A9
:1008900011C080914001823029F484E090E09A8375
:1008A000898308C081E090E09A83898303C01A821B
:1008B0001982000089819A8182309105B1F08330DC
:1008C000910534F4009709F4C4C0019749F0C2C0FF
:1008D0008330910509F445C0049709F47EC0BAC07D
:1008E0001092410110924201B5C0809142018D30B9
:1008F00080F480914201882F90E08E5E9E4FFC0133
:10090000808180934101809142018F5F80934201F9
:10091000A1C0809142018D3091F4109242018091EA
:100920004201882F90E08E5E9E4FFC018081809373
:100930004101809142018F5F809342018BC01092F0
:10094000420180914201882F90E08E5E9E4FFC0113
:10095000808180934101809142018F5F80934201A9
:1009600079C0809142018D3080F480914201882FBE
:1009700090E0815E9E4FFC018081809341018091D7
:1009800042018F5F8093420165C0809142018D30AA
:1009900091F41092420180914201882F90E0815E93
:1009A0009E4FFC01808180934101809142018F5FC5
:1009B000809342014FC01092420180914201882FE2
:1009C00090E0815E9E4FFC01808180934101809187
:1009D00042018F5F809342013DC0809142018D3082
:1009E00080F480914201882F90E0845D9E4FFC014D
:1009F000808180934101809142018F5F8093420109
:100A000029C0809142018D3091F410924201809171
:100A10004201882F90E0845D9E4FFC01808180938D
:100A20004101809142018F5F8093420113C0109277
:100A3000420180914201882F90E0845D9E4FFC012D
:100A4000808180934101809142018F5F80934201B8
:100A500001C0000089819A810F900F90DF91CF91A2
:100A60000895CF93DF9300D0CDB7DEB79A83898303
:100A700089819A81009719F0019731F00AC081E0CD
:100A800090E09A83898308C081E090E09A8389830B
:100A900003C01A821982000089819A81009749F067
:100AA000019709F007C08091410161E00E941B029B
:100AB00001C0000089819A810F900F90DF91CF9142
:100AC0000895CF93DF9300D0CDB7DEB79A838983A3
:100AD00080E290E0FC018081809580933F018981D4
:100AE0009A818230910509F440C0833091052CF43D
:100AF000009759F0019781F0B3C08330910509F454
:100B00005DC0049709F483C0ABC081E090E09A8394
:100B1000898310924301A7C080913F01882329F463
:100B200081E090E09A8389839EC080913F01843068
:100B300029F482E090E09A83898395C080913F01F7
:100B4000883029F483E090E09A8389838CC0809177
:100B50003F018C3029F484E090E09A83898383C03C
:100B600081E090E09A8389837EC080913F01882351
:100B700029F481E090E09A83898375C080913F01D8
:100B8000843029F482E090E09A8389836CC080915C
:100B90003F01883029F483E090E09A83898363C021
:100BA00080913F018C3029F484E090E09A8389831E
:100BB0005AC081E090E09A83898355C080913F01BB
:100BC000882329F481E090E09A8389834CC0809146
:100BD0003F01843029F482E090E09A83898343C006
:100BE00080913F01883029F483E090E09A838983E3
:100BF0003AC080913F018C3029F484E090E09A83E0
:100C0000898331C081E090E09A8389832CC08091F0
:100C10003F01882329F481E090E09A83898323C0EF
:100C200080913F01843029F482E090E09A838983A7
:100C30001AC080913F01883029F483E090E09A83C4
:100C4000898311C080913F018C3029F484E090E0C9
:100C50009A83898308C081E090E09A83898303C0E6
:100C60001A821982000089819A818230910571F07F
:100C7000833091052CF4009799F1019799F135C0D3
:100C80008330910581F00497E1F02FC080914301FA
:100C9000823030F4809143018F5F8093430125C0FF
:100CA0001092430122C080914301882331F080914A
:100CB000430181508093430118C082E08093430137
:100CC00014C080914301833020F48AE08093430173
:100CD0000BC0809143018A3039F41092430104C063
:100CE000000003C0000001C0000089819A810F90BC
:100CF0000F90DF91CF910895CF93DF9300D0CDB7C0
:100D0000DEB79A83898389819A818230910539F18E
:100D1000833091052CF4009759F0019781F0A6C01B
:100D20008330910509F448C0049709F472C09EC04D
:100D300081E090E09A838983109245019AC0809166
:100D40004301882339F482E090E09A8389831092EA
:100D500045018FC081E090E09A8389838AC08091A9
:100D600043018A3029F481E090E09A83898381C02D
:100D700080914301882329F482E090E09A8389835B
:100D800078C080914301813039F483E090E09A8308
:100D90008983109245016DC080914301823039F4FE
:100DA00084E090E09A8389831092450162C081E0DB
:100DB00090E09A8389835DC0809143018A3029F451
:100DC00081E090E09A83898354C080914301882315
:100DD00039F482E090E09A8389831092450149C0FA
:100DE00080914301813029F483E090E09A838983E4
:100DF00040C080914301823039F484E090E09A83CE
:100E000089831092450135C081E090E09A838983FF
:100E100030C0809143018A3029F481E090E09A83C8
:100E2000898327C080914301882339F482E090E0D0
:100E30009A838983109245011CC0809143018130BF
:100E400039F483E090E09A8389831092450111C0C0
:100E500080914301823029F484E090E09A83898371
:100E600008C081E090E09A83898303C01A821982C6
:100E7000000089819A8182309105B1F0833091051B
:100E800034F4009709F4C4C0019749F0C2C083301C
:100E9000910509F445C0049709F47EC0BAC01092C8
:100EA000440110924501B5C0809145018D3080F418
:100EB00080914501882F90E08E5E9E4FFC018081DD
:100EC00080934401809145018F5F80934501A1C0CB
:100ED000809145018D3091F410924501809145013A
:100EE000882F90E08E5E9E4FFC01808180934401AC
:100EF000809145018F5F809345018BC01092450121
:100F000080914501882F90E08E5E9E4FFC0180818C
:100F100080934401809145018F5F8093450179C0A2
:100F2000809145018D3080F480914501882F90E0BB
:100F3000815E9E4FFC018081809344018091450138
:100F40008F5F8093450165C0809145018D3091F49C
:100F50001092450180914501882F90E0815E9E4F5F
:100F6000FC01808180934401809145018F5F8093D3
:100F700045014FC01092450180914501882F90E0B6
:100F8000815E9E4FFC0180818093440180914501E8
:100F90008F5F809345013DC0809145018D3080F485
:100FA00080914501882F90E0845D9E4FFC018081F7
:100FB00080934401809145018F5F8093450129C052
:100FC000809145018D3091F4109245018091450149
:100FD000882F90E0845D9E4FFC01808180934401C6
:100FE000809145018F5F8093450113C010924501A8
:100FF00080914501882F90E0845D9E4FFC018081A7
:1010000080934401809145018F5F8093450101C029
:10101000000089819A810F900F90DF91CF91089500
:10102000CF93DF9300D0CDB7DEB79A8389838981D0
:101030009A81009719F0019731F00AC081E090E0A1
:101040009A83898308C081E090E09A83898303C0F2
:101050001A821982000089819A81009749F00197CC
:1010600009F007C08091440162E00E941B0201C0A8
:10107000000089819A810F900F90DF91CF910895A0
:10108000CF93DF931F92CDB7DEB781E290E0FC01F2
:10109000108282E290E02FEFFC01208387E290E053
:1010A0002FEFFC01208388E290E0FC01108219827E
:1010B0008981282F30E0C901880F991F820F931F63
:1010C000880F991F880F991F8A5B9E4FFC01118220
:1010D00010828981282F30E0C901880F991F820F63
:1010E000931F880F991F880F991F9C01285B3E4F03
:1010F00084E690E0A0E0B0E0F90180839183A283D0
:10110000B3838981682F70E08981282F30E0C9017D
:10111000880F991F820F931F880F991F880F991F9F
:10112000885B9E4FFC012081318142815381CB013C
:10113000880F991F860F971F880F991F880F991F77
:10114000845B9E4FFC0120833183428353838981DA
:10115000282F30E0C901880F991F820F931F880F35
:10116000991F880F991F805B9E4F22E832E0FC0197
:101170003183208389818F5F89838981282F30E0A3
:10118000C901880F991F820F931F880F991F880F1D
:10119000991F8A5B9E4FFC01118210828981282F42
:1011A00030E0C901880F991F820F931F880F991F84
:1011B000880F991F9C01285B3E4F84E690E0A0E0D9
:1011C000B0E0F90180839183A283B3838981682F82
:1011D00070E08981282F30E0C901880F991F820FA4
:1011E000931F880F991F880F991F885B9E4FFC01E2
:1011F0002081318142815381CB01880F991F860F55
:10120000971F880F991F880F991F845B9E4FFC01C1
:1012100020833183428353838981282F30E0C901A1
:10122000880F991F820F931F880F991F880F991F8E
:10123000805B9E4F21E635E0FC013183208389816C
:101240008F5F89838981282F30E0C901880F991F1A
:10125000820F931F880F991F880F991F8A5B9E4FDB
:10126000FC01118210828981282F30E0C901880F8A
:10127000991F820F931F880F991F880F991F9C0138
:10128000285B3E4F88EC90E0A0E0B0E0F90180835D
:101290009183A283B3838981682F70E08981282F8D
:1012A00030E0C901880F991F820F931F880F991F83
:1012B000880F991F885B9E4FFC01208131814281FC
:1012C0005381CB01880F991F860F971F880F991F95
:1012D000880F991F845B9E4FFC01208331834283DA
:1012E00053838981282F30E0C901880F991F820F0D
:1012F000931F880F991F880F991F805B9E4F2DE9C0
:1013000033E0FC013183208389818F5F8983898168
:10131000282F30E0C901880F991F820F931F880F73
:10132000991F880F991F8A5B9E4FFC0111821082C2
:101330008981282F30E0C901880F991F820F931FE0
:10134000880F991F880F991F9C01285B3E4F88ECDE
:1013500090E0A0E0B0E0F90180839183A283B383A1
:101360008981682F70E08981282F30E0C901880FBA
:10137000991F820F931F880F991F880F991F885BF1
:101380009E4FFC012081318142815381CB01880F26
:10139000991F860F971F880F991F880F991F845BCD
:1013A0009E4FFC0120833183428353838981282F00
:1013B00030E0C901880F991F820F931F880F991F72
:1013C000880F991F805B9E4F2CE736E0FC0131832C
:1013D000208389818F5F89838981282F30E0C9012B
:1013E000880F991F820F931F880F991F880F991FCD
:1013F0008A5B9E4FFC01118210828981282F30E088
:10140000C901880F991F820F931F880F991F880F9A
:10141000991F9C01285B3E4F84E690E0A0E0B0E07D
:10142000F90180839183A283B3838981682F70E05F
:101430008981282F30E0C901880F991F820F931FDF
:10144000880F991F880F991F885B9E4FFC01208190
:10145000318142815381CB01880F991F860F971FDD
:10146000880F991F880F991F845B9E4FFC01208372
:101470003183428353838981282F30E0C901880F4B
:10148000991F820F931F880F991F880F991F805BE8
:101490009E4F21E335E0FC013183208389818F5FFA
:1014A00089838981282F30E0C901880F991F820F15
:1014B000931F880F991F880F991F8A5B9E4FFC010D
:1014C000118210828981282F30E0C901880F991F6D
:1014D000820F931F880F991F880F991F9C01285B0B
:1014E0003E4F84E690E0A0E0B0E0F9018083918374
:1014F000A283B3838981682F70E08981282F30E02F
:10150000C901880F991F820F931F880F991F880F99
:10151000991F885B9E4FFC0120813181428153815C
:10152000CB01880F991F860F971F880F991F880F6F
:10153000991F845B9E4FFC01208331834283538338
:101540008981282F30E0C901880F991F820F931FCE
:10155000880F991F880F991F805B9E4F20E138E00C
:10156000FC013183208364E670E080E090E00E941B
:0C157000ED010E949000FFCFF894FFCF27
:10157C0000000002000000006700000000000100F5
:10158C0000000102040810204080FF00FF0000F062
:10159C000FF00FFF00FFFF66996699007E3C180064
:0A15AC00FFAA55AA550001800000B7
:00000001FF
